{"error":{"reason":"nonce has already been used","code":"NONCE_EXPIRED","error":{"reason":"processing response error","code":"SERVER_ERROR","body":"{\"jsonrpc\":\"2.0\",\"id\":53,\"error\":{\"code\":-32000,\"message\":\"nonce too low: address 0x4cCE8E0e2Ba902FE7D2D1fD894d85883E7cd720d, tx: 6 state: 7\"}}\n","error":{"code":-32000},"requestBody":"{\"method\":\"eth_sendRawTransaction\",\"params\":[\"0x02f8f282a4b1068459682f00846553f100830b1f1d94b2aa95c7afee8d0ed553dbbc1194a755ce4d5ee080b8841a24cd8f000000000000000000000000e406b13136ba6e0c21560754b06efe25f31e1cd2000000000000000000000000000000000000000000000000000000000000004000000000000000000000000000000000000000000000000000000000000000093931353737323133370000000000000000000000000000000000000000000000c001a06eacd7b41e1abe893130ff1ff8431efc0f78b9f804a56d50e6444b78110ed4b1a022e9b4bbc26018dde0025eabd2c29e7a82b59630fe3d54e019c6dab4d2d066ec\"],\"id\":53,\"jsonrpc\":\"2.0\"}","requestMethod":"POST","url":"https://orbital-omniscient-haze.arbitrum-mainnet.quiknode.pro/faed0abf27e3669eeb9885c2f1c5bd41af56f7bd"},"method":"sendTransaction","transaction":{"type":2,"chainId":42161,"nonce":6,"maxPriorityFeePerGas":{"type":"BigNumber","hex":"0x59682f00"},"maxFeePerGas":{"type":"BigNumber","hex":"0x6553f100"},"gasPrice":null,"gasLimit":{"type":"BigNumber","hex":"0x0b1f1d"},"to":"0xb2aa95c7AfeE8D0ED553dbbC1194A755ce4D5Ee0","value":{"type":"BigNumber","hex":"0x00"},"data":"0x1a24cd8f000000000000000000000000e406b13136ba6e0c21560754b06efe25f31e1cd2000000000000000000000000000000000000000000000000000000000000004000000000000000000000000000000000000000000000000000000000000000093931353737323133370000000000000000000000000000000000000000000000","accessList":[],"hash":"0x5769ac827b3c75a64432c942e337d9c6b95efc5e703aade329f74868cab0eda0","v":1,"r":"0x6eacd7b41e1abe893130ff1ff8431efc0f78b9f804a56d50e6444b78110ed4b1","s":"0x22e9b4bbc26018dde0025eabd2c29e7a82b59630fe3d54e019c6dab4d2d066ec","from":"0x4cCE8E0e2Ba902FE7D2D1fD894d85883E7cd720d","confirmations":0},"transactionHash":"0x5769ac827b3c75a64432c942e337d9c6b95efc5e703aade329f74868cab0eda0"}}