{"error":{"reason":"nonce has already been used","code":"NONCE_EXPIRED","error":{"reason":"processing response error","code":"SERVER_ERROR","body":"{\"jsonrpc\":\"2.0\",\"id\":53,\"error\":{\"code\":-32000,\"message\":\"nonce too low: address 0x4cCE8E0e2Ba902FE7D2D1fD894d85883E7cd720d, tx: 0 state: 1\"}}\n","error":{"code":-32000},"requestBody":"{\"method\":\"eth_sendRawTransaction\",\"params\":[\"0x02f8f282a4b1808459682f00846553f100830a4a0f943e6ff1c7dacb826ddd4058606982c71e15a8801480b8841a24cd8f000000000000000000000000037dba64bf8e704c67b8dc6db4429a64c7f785da000000000000000000000000000000000000000000000000000000000000004000000000000000000000000000000000000000000000000000000000000000093931353737323133370000000000000000000000000000000000000000000000c080a0a3ff72291b5ee7ea5d8b8db2abb40d864b803b1091f3bc4d8fd350698c79afd2a073f69d5a5a475d94ba4d127fb92b0a20e5d111d8369da4a7b044355b22ce0174\"],\"id\":53,\"jsonrpc\":\"2.0\"}","requestMethod":"POST","url":"https://orbital-omniscient-haze.arbitrum-mainnet.quiknode.pro/faed0abf27e3669eeb9885c2f1c5bd41af56f7bd"},"method":"sendTransaction","transaction":{"type":2,"chainId":42161,"nonce":0,"maxPriorityFeePerGas":{"type":"BigNumber","hex":"0x59682f00"},"maxFeePerGas":{"type":"BigNumber","hex":"0x6553f100"},"gasPrice":null,"gasLimit":{"type":"BigNumber","hex":"0x0a4a0f"},"to":"0x3E6fF1c7Dacb826dDD4058606982c71e15A88014","value":{"type":"BigNumber","hex":"0x00"},"data":"0x1a24cd8f000000000000000000000000037dba64bf8e704c67b8dc6db4429a64c7f785da000000000000000000000000000000000000000000000000000000000000004000000000000000000000000000000000000000000000000000000000000000093931353737323133370000000000000000000000000000000000000000000000","accessList":[],"hash":"0xbec4da73a5b60eb3dc6549e191b8d8bdf5623649694fa3837dfbff3304b72612","v":0,"r":"0xa3ff72291b5ee7ea5d8b8db2abb40d864b803b1091f3bc4d8fd350698c79afd2","s":"0x73f69d5a5a475d94ba4d127fb92b0a20e5d111d8369da4a7b044355b22ce0174","from":"0x4cCE8E0e2Ba902FE7D2D1fD894d85883E7cd720d","confirmations":0},"transactionHash":"0xbec4da73a5b60eb3dc6549e191b8d8bdf5623649694fa3837dfbff3304b72612"}}